{
  "address": "0xE8F7d98bE6722d42F29b50500B0E318EF2be4fc8",
  "abi": [
    {
      "inputs": [
        {
          "internalType": "address",
          "name": "_linkTokenAddress",
          "type": "address"
        }
      ],
      "stateMutability": "nonpayable",
      "type": "constructor"
    },
    {
      "anonymous": false,
      "inputs": [
        {
          "indexed": true,
          "internalType": "address",
          "name": "owner",
          "type": "address"
        },
        {
          "indexed": true,
          "internalType": "address",
          "name": "approved",
          "type": "address"
        },
        {
          "indexed": true,
          "internalType": "uint256",
          "name": "tokenId",
          "type": "uint256"
        }
      ],
      "name": "Approval",
      "type": "event"
    },
    {
      "anonymous": false,
      "inputs": [
        {
          "indexed": true,
          "internalType": "address",
          "name": "owner",
          "type": "address"
        },
        {
          "indexed": true,
          "internalType": "address",
          "name": "operator",
          "type": "address"
        },
        {
          "indexed": false,
          "internalType": "bool",
          "name": "approved",
          "type": "bool"
        }
      ],
      "name": "ApprovalForAll",
      "type": "event"
    },
    {
      "anonymous": false,
      "inputs": [
        {
          "indexed": true,
          "internalType": "address",
          "name": "from",
          "type": "address"
        },
        {
          "indexed": true,
          "internalType": "address",
          "name": "to",
          "type": "address"
        },
        {
          "indexed": true,
          "internalType": "uint256",
          "name": "tokenId",
          "type": "uint256"
        }
      ],
      "name": "Transfer",
      "type": "event"
    },
    {
      "inputs": [],
      "name": "WithdrawProfit",
      "outputs": [],
      "stateMutability": "nonpayable",
      "type": "function"
    },
    {
      "inputs": [],
      "name": "_tokenIds",
      "outputs": [
        {
          "internalType": "uint256",
          "name": "_value",
          "type": "uint256"
        }
      ],
      "stateMutability": "view",
      "type": "function"
    },
    {
      "inputs": [
        {
          "internalType": "address",
          "name": "to",
          "type": "address"
        },
        {
          "internalType": "uint256",
          "name": "tokenId",
          "type": "uint256"
        }
      ],
      "name": "approve",
      "outputs": [],
      "stateMutability": "nonpayable",
      "type": "function"
    },
    {
      "inputs": [
        {
          "internalType": "address",
          "name": "owner",
          "type": "address"
        }
      ],
      "name": "balanceOf",
      "outputs": [
        {
          "internalType": "uint256",
          "name": "",
          "type": "uint256"
        }
      ],
      "stateMutability": "view",
      "type": "function"
    },
    {
      "inputs": [
        {
          "internalType": "uint256",
          "name": "_tokenIdToBurn",
          "type": "uint256"
        }
      ],
      "name": "burnAndRedeem",
      "outputs": [],
      "stateMutability": "nonpayable",
      "type": "function"
    },
    {
      "inputs": [
        {
          "internalType": "uint256",
          "name": "tokenId",
          "type": "uint256"
        }
      ],
      "name": "getApproved",
      "outputs": [
        {
          "internalType": "address",
          "name": "",
          "type": "address"
        }
      ],
      "stateMutability": "view",
      "type": "function"
    },
    {
      "inputs": [],
      "name": "getEIPS",
      "outputs": [
        {
          "internalType": "uint256",
          "name": "",
          "type": "uint256"
        }
      ],
      "stateMutability": "pure",
      "type": "function"
    },
    {
      "inputs": [],
      "name": "getEdenWithDrawable",
      "outputs": [
        {
          "internalType": "uint256",
          "name": "",
          "type": "uint256"
        }
      ],
      "stateMutability": "view",
      "type": "function"
    },
    {
      "inputs": [],
      "name": "getLinkAddress",
      "outputs": [
        {
          "internalType": "address",
          "name": "",
          "type": "address"
        }
      ],
      "stateMutability": "view",
      "type": "function"
    },
    {
      "inputs": [],
      "name": "getOwner",
      "outputs": [
        {
          "internalType": "address",
          "name": "",
          "type": "address"
        }
      ],
      "stateMutability": "view",
      "type": "function"
    },
    {
      "inputs": [],
      "name": "getPrice",
      "outputs": [
        {
          "internalType": "uint256",
          "name": "",
          "type": "uint256"
        }
      ],
      "stateMutability": "pure",
      "type": "function"
    },
    {
      "inputs": [],
      "name": "getRedeemPrice",
      "outputs": [
        {
          "internalType": "uint256",
          "name": "",
          "type": "uint256"
        }
      ],
      "stateMutability": "pure",
      "type": "function"
    },
    {
      "inputs": [
        {
          "internalType": "address",
          "name": "owner",
          "type": "address"
        },
        {
          "internalType": "address",
          "name": "operator",
          "type": "address"
        }
      ],
      "name": "isApprovedForAll",
      "outputs": [
        {
          "internalType": "bool",
          "name": "",
          "type": "bool"
        }
      ],
      "stateMutability": "view",
      "type": "function"
    },
    {
      "inputs": [
        {
          "internalType": "address",
          "name": "_player",
          "type": "address"
        }
      ],
      "name": "mintThisNFT",
      "outputs": [
        {
          "internalType": "uint256",
          "name": "",
          "type": "uint256"
        }
      ],
      "stateMutability": "nonpayable",
      "type": "function"
    },
    {
      "inputs": [],
      "name": "name",
      "outputs": [
        {
          "internalType": "string",
          "name": "",
          "type": "string"
        }
      ],
      "stateMutability": "view",
      "type": "function"
    },
    {
      "inputs": [
        {
          "internalType": "uint256",
          "name": "tokenId",
          "type": "uint256"
        }
      ],
      "name": "ownerOf",
      "outputs": [
        {
          "internalType": "address",
          "name": "",
          "type": "address"
        }
      ],
      "stateMutability": "view",
      "type": "function"
    },
    {
      "inputs": [
        {
          "internalType": "address",
          "name": "from",
          "type": "address"
        },
        {
          "internalType": "address",
          "name": "to",
          "type": "address"
        },
        {
          "internalType": "uint256",
          "name": "tokenId",
          "type": "uint256"
        }
      ],
      "name": "safeTransferFrom",
      "outputs": [],
      "stateMutability": "nonpayable",
      "type": "function"
    },
    {
      "inputs": [
        {
          "internalType": "address",
          "name": "from",
          "type": "address"
        },
        {
          "internalType": "address",
          "name": "to",
          "type": "address"
        },
        {
          "internalType": "uint256",
          "name": "tokenId",
          "type": "uint256"
        },
        {
          "internalType": "bytes",
          "name": "data",
          "type": "bytes"
        }
      ],
      "name": "safeTransferFrom",
      "outputs": [],
      "stateMutability": "nonpayable",
      "type": "function"
    },
    {
      "inputs": [
        {
          "internalType": "address",
          "name": "operator",
          "type": "address"
        },
        {
          "internalType": "bool",
          "name": "approved",
          "type": "bool"
        }
      ],
      "name": "setApprovalForAll",
      "outputs": [],
      "stateMutability": "nonpayable",
      "type": "function"
    },
    {
      "inputs": [
        {
          "internalType": "bytes4",
          "name": "interfaceId",
          "type": "bytes4"
        }
      ],
      "name": "supportsInterface",
      "outputs": [
        {
          "internalType": "bool",
          "name": "",
          "type": "bool"
        }
      ],
      "stateMutability": "view",
      "type": "function"
    },
    {
      "inputs": [],
      "name": "symbol",
      "outputs": [
        {
          "internalType": "string",
          "name": "",
          "type": "string"
        }
      ],
      "stateMutability": "view",
      "type": "function"
    },
    {
      "inputs": [
        {
          "internalType": "uint256",
          "name": "tokenId",
          "type": "uint256"
        }
      ],
      "name": "tokenURI",
      "outputs": [
        {
          "internalType": "string",
          "name": "",
          "type": "string"
        }
      ],
      "stateMutability": "view",
      "type": "function"
    },
    {
      "inputs": [
        {
          "internalType": "address",
          "name": "from",
          "type": "address"
        },
        {
          "internalType": "address",
          "name": "to",
          "type": "address"
        },
        {
          "internalType": "uint256",
          "name": "tokenId",
          "type": "uint256"
        }
      ],
      "name": "transferFrom",
      "outputs": [],
      "stateMutability": "nonpayable",
      "type": "function"
    }
  ],
  "transactionHash": "0x127a260ef6c09b0c29ee3d03e315a71c868eee7ef843c419957b971c38a6012c",
  "args": [
    "0xb932C8342106776E73E39D695F3FFC3A9624eCE0"
  ],
  "numDeployments": 1,
  "solcInputHash": "133eae07687e5b866650083feff84c21",
  "bytecode": "0x60c06040523480156200001157600080fd5b506040516200371438038062003714833981810160405281019062000037919062000213565b6040518060400160405280601181526020017f5269636368657a7a6153776f72643030310000000000000000000000000000008152506040518060400160405280600681526020017f52435a2d533100000000000000000000000000000000000000000000000000008152508160009080519060200190620000bb9291906200014c565b508060019080519060200190620000d49291906200014c565b5050508073ffffffffffffffffffffffffffffffffffffffff1660808173ffffffffffffffffffffffffffffffffffffffff1660601b815250503373ffffffffffffffffffffffffffffffffffffffff1660a08173ffffffffffffffffffffffffffffffffffffffff1660601b8152505050620002fd565b8280546200015a9062000279565b90600052602060002090601f0160209004810192826200017e5760008555620001ca565b82601f106200019957805160ff1916838001178555620001ca565b82800160010185558215620001ca579182015b82811115620001c9578251825591602001919060010190620001ac565b5b509050620001d99190620001dd565b5090565b5b80821115620001f8576000816000905550600101620001de565b5090565b6000815190506200020d81620002e3565b92915050565b6000602082840312156200022c576200022b620002de565b5b60006200023c84828501620001fc565b91505092915050565b6000620002528262000259565b9050919050565b600073ffffffffffffffffffffffffffffffffffffffff82169050919050565b600060028204905060018216806200029257607f821691505b60208210811415620002a957620002a8620002af565b5b50919050565b7f4e487b7100000000000000000000000000000000000000000000000000000000600052602260045260246000fd5b600080fd5b620002ee8162000245565b8114620002fa57600080fd5b50565b60805160601c60a05160601c6133c86200034c6000396000818161092a0152610ac90152600081816109fd01528181610bbc01528181610dc801528181610eb1015261110501526133c86000f3fe608060405234801561001057600080fd5b506004361061014d5760003560e01c8063893d20e8116100c3578063b88d4fde1161007c578063b88d4fde1461037a578063ba0377ba14610396578063c87b56dd146103c6578063ca30e603146103f6578063dfc9005314610414578063e985e9c5146104325761014d565b8063893d20e8146102ca57806390884e0d146102e857806395d89b411461030457806398d5fdca14610322578063a22cb46514610340578063aa46a4001461035c5761014d565b806342842e0e1161011557806342842e0e146102085780636352211e14610224578063660881eb1461025457806370a082311461027257806373fe9123146102a257806376cde564146102ac5761014d565b806301ffc9a71461015257806306fdde0314610182578063081812fc146101a0578063095ea7b3146101d057806323b872dd146101ec575b600080fd5b61016c600480360381019061016791906123d0565b610462565b6040516101799190612892565b60405180910390f35b61018a610544565b60405161019791906128ad565b60405180910390f35b6101ba60048036038101906101b5919061242a565b6105d6565b6040516101c791906127cb565b60405180910390f35b6101ea60048036038101906101e59190612363565b61061c565b005b6102066004803603810190610201919061224d565b610734565b005b610222600480360381019061021d919061224d565b610794565b005b61023e6004803603810190610239919061242a565b6107b4565b60405161024b91906127cb565b60405180910390f35b61025c610866565b6040516102699190612aef565b60405180910390f35b61028c600480360381019061028791906121e0565b610870565b6040516102999190612aef565b60405180910390f35b6102aa610928565b005b6102b4610ab5565b6040516102c19190612aef565b60405180910390f35b6102d2610ac5565b6040516102df91906127cb565b60405180910390f35b61030260048036038101906102fd919061242a565b610aed565b005b61030c610c95565b60405161031991906128ad565b60405180910390f35b61032a610d27565b6040516103379190612aef565b60405180910390f35b61035a60048036038101906103559190612323565b610d37565b005b610364610d4d565b6040516103719190612aef565b60405180910390f35b610394600480360381019061038f91906122a0565b610d59565b005b6103b060048036038101906103ab91906121e0565b610dbb565b6040516103bd9190612aef565b60405180910390f35b6103e060048036038101906103db919061242a565b610fee565b6040516103ed91906128ad565b60405180910390f35b6103fe611101565b60405161040b91906127cb565b60405180910390f35b61041c611129565b6040516104299190612aef565b60405180910390f35b61044c6004803603810190610447919061220d565b611139565b6040516104599190612892565b60405180910390f35b60007f80ac58cd000000000000000000000000000000000000000000000000000000007bffffffffffffffffffffffffffffffffffffffffffffffffffffffff1916827bffffffffffffffffffffffffffffffffffffffffffffffffffffffff1916148061052d57507f5b5e139f000000000000000000000000000000000000000000000000000000007bffffffffffffffffffffffffffffffffffffffffffffffffffffffff1916827bffffffffffffffffffffffffffffffffffffffffffffffffffffffff1916145b8061053d575061053c826111cd565b5b9050919050565b60606000805461055390612d14565b80601f016020809104026020016040519081016040528092919081815260200182805461057f90612d14565b80156105cc5780601f106105a1576101008083540402835291602001916105cc565b820191906000526020600020905b8154815290600101906020018083116105af57829003601f168201915b5050505050905090565b60006105e182611237565b6004600083815260200190815260200160002060009054906101000a900473ffffffffffffffffffffffffffffffffffffffff169050919050565b6000610627826107b4565b90508073ffffffffffffffffffffffffffffffffffffffff168373ffffffffffffffffffffffffffffffffffffffff161415610698576040517f08c379a000000000000000000000000000000000000000000000000000000000815260040161068f90612a8f565b60405180910390fd5b8073ffffffffffffffffffffffffffffffffffffffff166106b7611282565b73ffffffffffffffffffffffffffffffffffffffff1614806106e657506106e5816106e0611282565b611139565b5b610725576040517f08c379a000000000000000000000000000000000000000000000000000000000815260040161071c906129cf565b60405180910390fd5b61072f838361128a565b505050565b61074561073f611282565b82611343565b610784576040517f08c379a000000000000000000000000000000000000000000000000000000000815260040161077b90612acf565b60405180910390fd5b61078f8383836113d8565b505050565b6107af83838360405180602001604052806000815250610d59565b505050565b6000806002600084815260200190815260200160002060009054906101000a900473ffffffffffffffffffffffffffffffffffffffff169050600073ffffffffffffffffffffffffffffffffffffffff168173ffffffffffffffffffffffffffffffffffffffff16141561085d576040517f08c379a000000000000000000000000000000000000000000000000000000000815260040161085490612a6f565b60405180910390fd5b80915050919050565b6000600854905090565b60008073ffffffffffffffffffffffffffffffffffffffff168273ffffffffffffffffffffffffffffffffffffffff1614156108e1576040517f08c379a00000000000000000000000000000000000000000000000000000000081526004016108d89061298f565b60405180910390fd5b600360008373ffffffffffffffffffffffffffffffffffffffff1673ffffffffffffffffffffffffffffffffffffffff168152602001908152602001600020549050919050565b7f000000000000000000000000000000000000000000000000000000000000000073ffffffffffffffffffffffffffffffffffffffff163373ffffffffffffffffffffffffffffffffffffffff16146109b6576040517f08c379a00000000000000000000000000000000000000000000000000000000081526004016109ad90612a4f565b60405180910390fd5b6000600854116109fb576040517f08c379a00000000000000000000000000000000000000000000000000000000081526004016109f2906128cf565b60405180910390fd5b7f000000000000000000000000000000000000000000000000000000000000000073ffffffffffffffffffffffffffffffffffffffff1663a9059cbb336008546040518363ffffffff1660e01b8152600401610a58929190612869565b602060405180830381600087803b158015610a7257600080fd5b505af1158015610a86573d6000803e3d6000fd5b505050506040513d601f19601f82011682018060405250810190610aaa91906123a3565b506000600881905550565b6000673782dace9d900000905090565b60007f0000000000000000000000000000000000000000000000000000000000000000905090565b3373ffffffffffffffffffffffffffffffffffffffff16610b0d826107b4565b73ffffffffffffffffffffffffffffffffffffffff1614610b63576040517f08c379a0000000000000000000000000000000000000000000000000000000008152600401610b5a90612aaf565b60405180910390fd5b600560096000838152602001908152602001600020541015610bba576040517f08c379a0000000000000000000000000000000000000000000000000000000008152600401610bb190612a2f565b60405180910390fd5b7f000000000000000000000000000000000000000000000000000000000000000073ffffffffffffffffffffffffffffffffffffffff1663a9059cbb33673782dace9d9000006040518363ffffffff1660e01b8152600401610c1d929190612869565b602060405180830381600087803b158015610c3757600080fd5b505af1158015610c4b573d6000803e3d6000fd5b505050506040513d601f19601f82011682018060405250810190610c6f91906123a3565b5060006009600083815260200190815260200160002081905550610c928161163f565b50565b606060018054610ca490612d14565b80601f0160208091040260200160405190810160405280929190818152602001828054610cd090612d14565b8015610d1d5780601f10610cf257610100808354040283529160200191610d1d565b820191906000526020600020905b815481529060010190602001808311610d0057829003601f168201915b5050505050905090565b6000674563918244f40000905090565b610d49610d42611282565b8383611692565b5050565b60078060000154905081565b610d6a610d64611282565b83611343565b610da9576040517f08c379a0000000000000000000000000000000000000000000000000000000008152600401610da090612acf565b60405180910390fd5b610db5848484846117ff565b50505050565b6000674563918244f400007f000000000000000000000000000000000000000000000000000000000000000073ffffffffffffffffffffffffffffffffffffffff166370a08231336040518263ffffffff1660e01b8152600401610e1f91906127cb565b60206040518083038186803b158015610e3757600080fd5b505afa158015610e4b573d6000803e3d6000fd5b505050506040513d601f19601f82011682018060405250810190610e6f9190612457565b11610eaf576040517f08c379a0000000000000000000000000000000000000000000000000000000008152600401610ea690612a0f565b60405180910390fd5b7f000000000000000000000000000000000000000000000000000000000000000073ffffffffffffffffffffffffffffffffffffffff166323b872dd3330674563918244f400006040518463ffffffff1660e01b8152600401610f14939291906127e6565b602060405180830381600087803b158015610f2e57600080fd5b505af1158015610f42573d6000803e3d6000fd5b505050506040513d601f19601f82011682018060405250810190610f6691906123a3565b50670de0b6b3a764000060086000828254610f819190612ba3565b925050819055506000610f94600761185b565b905060056009600083815260200190815260200160002081905550610fb98382611869565b610fdb816040518060800160405280604c8152602001613347604c9139611a43565b610fe56007611ab7565b80915050919050565b6060610ff982611237565b600060066000848152602001908152602001600020805461101990612d14565b80601f016020809104026020016040519081016040528092919081815260200182805461104590612d14565b80156110925780601f1061106757610100808354040283529160200191611092565b820191906000526020600020905b81548152906001019060200180831161107557829003601f168201915b5050505050905060006110a3611acd565b90506000815114156110b95781925050506110fc565b6000825111156110ee5780826040516020016110d69291906127a7565b604051602081830303815290604052925050506110fc565b6110f784611ae4565b925050505b919050565b60007f0000000000000000000000000000000000000000000000000000000000000000905090565b6000670de0b6b3a7640000905090565b6000600560008473ffffffffffffffffffffffffffffffffffffffff1673ffffffffffffffffffffffffffffffffffffffff16815260200190815260200160002060008373ffffffffffffffffffffffffffffffffffffffff1673ffffffffffffffffffffffffffffffffffffffff16815260200190815260200160002060009054906101000a900460ff16905092915050565b60007f01ffc9a7000000000000000000000000000000000000000000000000000000007bffffffffffffffffffffffffffffffffffffffffffffffffffffffff1916827bffffffffffffffffffffffffffffffffffffffffffffffffffffffff1916149050919050565b61124081611b4c565b61127f576040517f08c379a000000000000000000000000000000000000000000000000000000000815260040161127690612a6f565b60405180910390fd5b50565b600033905090565b816004600083815260200190815260200160002060006101000a81548173ffffffffffffffffffffffffffffffffffffffff021916908373ffffffffffffffffffffffffffffffffffffffff160217905550808273ffffffffffffffffffffffffffffffffffffffff166112fd836107b4565b73ffffffffffffffffffffffffffffffffffffffff167f8c5be1e5ebec7d5bd14f71427d1e84f3dd0314c0f7b2291e5b200ac8c7c3b92560405160405180910390a45050565b60008061134f836107b4565b90508073ffffffffffffffffffffffffffffffffffffffff168473ffffffffffffffffffffffffffffffffffffffff16148061139157506113908185611139565b5b806113cf57508373ffffffffffffffffffffffffffffffffffffffff166113b7846105d6565b73ffffffffffffffffffffffffffffffffffffffff16145b91505092915050565b8273ffffffffffffffffffffffffffffffffffffffff166113f8826107b4565b73ffffffffffffffffffffffffffffffffffffffff161461144e576040517f08c379a00000000000000000000000000000000000000000000000000000000081526004016114459061290f565b60405180910390fd5b600073ffffffffffffffffffffffffffffffffffffffff168273ffffffffffffffffffffffffffffffffffffffff1614156114be576040517f08c379a00000000000000000000000000000000000000000000000000000000081526004016114b59061294f565b60405180910390fd5b6114c9838383611bb8565b6114d460008261128a565b6001600360008573ffffffffffffffffffffffffffffffffffffffff1673ffffffffffffffffffffffffffffffffffffffff16815260200190815260200160002060008282546115249190612c2a565b925050819055506001600360008473ffffffffffffffffffffffffffffffffffffffff1673ffffffffffffffffffffffffffffffffffffffff168152602001908152602001600020600082825461157b9190612ba3565b92505081905550816002600083815260200190815260200160002060006101000a81548173ffffffffffffffffffffffffffffffffffffffff021916908373ffffffffffffffffffffffffffffffffffffffff160217905550808273ffffffffffffffffffffffffffffffffffffffff168473ffffffffffffffffffffffffffffffffffffffff167fddf252ad1be2c89b69c2b068fc378daa952ba7f163c4a11628f55a4df523b3ef60405160405180910390a461163a838383611bbd565b505050565b61164881611bc2565b600060066000838152602001908152602001600020805461166890612d14565b90501461168f5760066000828152602001908152602001600020600061168e9190611ffa565b5b50565b8173ffffffffffffffffffffffffffffffffffffffff168373ffffffffffffffffffffffffffffffffffffffff161415611701576040517f08c379a00000000000000000000000000000000000000000000000000000000081526004016116f89061296f565b60405180910390fd5b80600560008573ffffffffffffffffffffffffffffffffffffffff1673ffffffffffffffffffffffffffffffffffffffff16815260200190815260200160002060008473ffffffffffffffffffffffffffffffffffffffff1673ffffffffffffffffffffffffffffffffffffffff16815260200190815260200160002060006101000a81548160ff0219169083151502179055508173ffffffffffffffffffffffffffffffffffffffff168373ffffffffffffffffffffffffffffffffffffffff167f17307eab39ab6107e8899845ad3d59bd9653f200f220920489ca2b5937696c31836040516117f29190612892565b60405180910390a3505050565b61180a8484846113d8565b61181684848484611cdf565b611855576040517f08c379a000000000000000000000000000000000000000000000000000000000815260040161184c906128ef565b60405180910390fd5b50505050565b600081600001549050919050565b600073ffffffffffffffffffffffffffffffffffffffff168273ffffffffffffffffffffffffffffffffffffffff1614156118d9576040517f08c379a00000000000000000000000000000000000000000000000000000000081526004016118d0906129ef565b60405180910390fd5b6118e281611b4c565b15611922576040517f08c379a00000000000000000000000000000000000000000000000000000000081526004016119199061292f565b60405180910390fd5b61192e60008383611bb8565b6001600360008473ffffffffffffffffffffffffffffffffffffffff1673ffffffffffffffffffffffffffffffffffffffff168152602001908152602001600020600082825461197e9190612ba3565b92505081905550816002600083815260200190815260200160002060006101000a81548173ffffffffffffffffffffffffffffffffffffffff021916908373ffffffffffffffffffffffffffffffffffffffff160217905550808273ffffffffffffffffffffffffffffffffffffffff16600073ffffffffffffffffffffffffffffffffffffffff167fddf252ad1be2c89b69c2b068fc378daa952ba7f163c4a11628f55a4df523b3ef60405160405180910390a4611a3f60008383611bbd565b5050565b611a4c82611b4c565b611a8b576040517f08c379a0000000000000000000000000000000000000000000000000000000008152600401611a82906129af565b60405180910390fd5b80600660008481526020019081526020016000209080519060200190611ab292919061203a565b505050565b6001816000016000828254019250508190555050565b606060405180602001604052806000815250905090565b6060611aef82611237565b6000611af9611acd565b90506000815111611b195760405180602001604052806000815250611b44565b80611b2384611e76565b604051602001611b349291906127a7565b6040516020818303038152906040525b915050919050565b60008073ffffffffffffffffffffffffffffffffffffffff166002600084815260200190815260200160002060009054906101000a900473ffffffffffffffffffffffffffffffffffffffff1673ffffffffffffffffffffffffffffffffffffffff1614159050919050565b505050565b505050565b6000611bcd826107b4565b9050611bdb81600084611bb8565b611be660008361128a565b6001600360008373ffffffffffffffffffffffffffffffffffffffff1673ffffffffffffffffffffffffffffffffffffffff1681526020019081526020016000206000828254611c369190612c2a565b925050819055506002600083815260200190815260200160002060006101000a81549073ffffffffffffffffffffffffffffffffffffffff021916905581600073ffffffffffffffffffffffffffffffffffffffff168273ffffffffffffffffffffffffffffffffffffffff167fddf252ad1be2c89b69c2b068fc378daa952ba7f163c4a11628f55a4df523b3ef60405160405180910390a4611cdb81600084611bbd565b5050565b6000611d008473ffffffffffffffffffffffffffffffffffffffff16611fd7565b15611e69578373ffffffffffffffffffffffffffffffffffffffff1663150b7a02611d29611282565b8786866040518563ffffffff1660e01b8152600401611d4b949392919061281d565b602060405180830381600087803b158015611d6557600080fd5b505af1925050508015611d9657506040513d601f19601f82011682018060405250810190611d9391906123fd565b60015b611e19573d8060008114611dc6576040519150601f19603f3d011682016040523d82523d6000602084013e611dcb565b606091505b50600081511415611e11576040517f08c379a0000000000000000000000000000000000000000000000000000000008152600401611e08906128ef565b60405180910390fd5b805181602001fd5b63150b7a0260e01b7bffffffffffffffffffffffffffffffffffffffffffffffffffffffff1916817bffffffffffffffffffffffffffffffffffffffffffffffffffffffff191614915050611e6e565b600190505b949350505050565b60606000821415611ebe576040518060400160405280600181526020017f30000000000000000000000000000000000000000000000000000000000000008152509050611fd2565b600082905060005b60008214611ef0578080611ed990612d77565b915050600a82611ee99190612bf9565b9150611ec6565b60008167ffffffffffffffff811115611f0c57611f0b612ead565b5b6040519080825280601f01601f191660200182016040528015611f3e5781602001600182028036833780820191505090505b5090505b60008514611fcb57600182611f579190612c2a565b9150600a85611f669190612dc0565b6030611f729190612ba3565b60f81b818381518110611f8857611f87612e7e565b5b60200101907effffffffffffffffffffffffffffffffffffffffffffffffffffffffffffff1916908160001a905350600a85611fc49190612bf9565b9450611f42565b8093505050505b919050565b6000808273ffffffffffffffffffffffffffffffffffffffff163b119050919050565b50805461200690612d14565b6000825580601f106120185750612037565b601f01602090049060005260206000209081019061203691906120c0565b5b50565b82805461204690612d14565b90600052602060002090601f01602090048101928261206857600085556120af565b82601f1061208157805160ff19168380011785556120af565b828001600101855582156120af579182015b828111156120ae578251825591602001919060010190612093565b5b5090506120bc91906120c0565b5090565b5b808211156120d95760008160009055506001016120c1565b5090565b60006120f06120eb84612b2f565b612b0a565b90508281526020810184848401111561210c5761210b612ee1565b5b612117848285612cd2565b509392505050565b60008135905061212e816132ea565b92915050565b60008135905061214381613301565b92915050565b60008151905061215881613301565b92915050565b60008135905061216d81613318565b92915050565b60008151905061218281613318565b92915050565b600082601f83011261219d5761219c612edc565b5b81356121ad8482602086016120dd565b91505092915050565b6000813590506121c58161332f565b92915050565b6000815190506121da8161332f565b92915050565b6000602082840312156121f6576121f5612eeb565b5b60006122048482850161211f565b91505092915050565b6000806040838503121561222457612223612eeb565b5b60006122328582860161211f565b92505060206122438582860161211f565b9150509250929050565b60008060006060848603121561226657612265612eeb565b5b60006122748682870161211f565b93505060206122858682870161211f565b9250506040612296868287016121b6565b9150509250925092565b600080600080608085870312156122ba576122b9612eeb565b5b60006122c88782880161211f565b94505060206122d98782880161211f565b93505060406122ea878288016121b6565b925050606085013567ffffffffffffffff81111561230b5761230a612ee6565b5b61231787828801612188565b91505092959194509250565b6000806040838503121561233a57612339612eeb565b5b60006123488582860161211f565b925050602061235985828601612134565b9150509250929050565b6000806040838503121561237a57612379612eeb565b5b60006123888582860161211f565b9250506020612399858286016121b6565b9150509250929050565b6000602082840312156123b9576123b8612eeb565b5b60006123c784828501612149565b91505092915050565b6000602082840312156123e6576123e5612eeb565b5b60006123f48482850161215e565b91505092915050565b60006020828403121561241357612412612eeb565b5b600061242184828501612173565b91505092915050565b6000602082840312156124405761243f612eeb565b5b600061244e848285016121b6565b91505092915050565b60006020828403121561246d5761246c612eeb565b5b600061247b848285016121cb565b91505092915050565b61248d81612c5e565b82525050565b61249c81612c70565b82525050565b60006124ad82612b60565b6124b78185612b76565b93506124c7818560208601612ce1565b6124d081612ef0565b840191505092915050565b60006124e682612b6b565b6124f08185612b87565b9350612500818560208601612ce1565b61250981612ef0565b840191505092915050565b600061251f82612b6b565b6125298185612b98565b9350612539818560208601612ce1565b80840191505092915050565b6000612552601983612b87565b915061255d82612f01565b602082019050919050565b6000612575603283612b87565b915061258082612f2a565b604082019050919050565b6000612598602583612b87565b91506125a382612f79565b604082019050919050565b60006125bb601c83612b87565b91506125c682612fc8565b602082019050919050565b60006125de602483612b87565b91506125e982612ff1565b604082019050919050565b6000612601601983612b87565b915061260c82613040565b602082019050919050565b6000612624602983612b87565b915061262f82613069565b604082019050919050565b6000612647602e83612b87565b9150612652826130b8565b604082019050919050565b600061266a603e83612b87565b915061267582613107565b604082019050919050565b600061268d602083612b87565b915061269882613156565b602082019050919050565b60006126b0601083612b87565b91506126bb8261317f565b602082019050919050565b60006126d3601983612b87565b91506126de826131a8565b602082019050919050565b60006126f6600a83612b87565b9150612701826131d1565b602082019050919050565b6000612719601883612b87565b9150612724826131fa565b602082019050919050565b600061273c602183612b87565b915061274782613223565b604082019050919050565b600061275f601783612b87565b915061276a82613272565b602082019050919050565b6000612782602e83612b87565b915061278d8261329b565b604082019050919050565b6127a181612cc8565b82525050565b60006127b38285612514565b91506127bf8284612514565b91508190509392505050565b60006020820190506127e06000830184612484565b92915050565b60006060820190506127fb6000830186612484565b6128086020830185612484565b6128156040830184612798565b949350505050565b60006080820190506128326000830187612484565b61283f6020830186612484565b61284c6040830185612798565b818103606083015261285e81846124a2565b905095945050505050565b600060408201905061287e6000830185612484565b61288b6020830184612798565b9392505050565b60006020820190506128a76000830184612493565b92915050565b600060208201905081810360008301526128c781846124db565b905092915050565b600060208201905081810360008301526128e881612545565b9050919050565b6000602082019050818103600083015261290881612568565b9050919050565b600060208201905081810360008301526129288161258b565b9050919050565b60006020820190508181036000830152612948816125ae565b9050919050565b60006020820190508181036000830152612968816125d1565b9050919050565b60006020820190508181036000830152612988816125f4565b9050919050565b600060208201905081810360008301526129a881612617565b9050919050565b600060208201905081810360008301526129c88161263a565b9050919050565b600060208201905081810360008301526129e88161265d565b9050919050565b60006020820190508181036000830152612a0881612680565b9050919050565b60006020820190508181036000830152612a28816126a3565b9050919050565b60006020820190508181036000830152612a48816126c6565b9050919050565b60006020820190508181036000830152612a68816126e9565b9050919050565b60006020820190508181036000830152612a888161270c565b9050919050565b60006020820190508181036000830152612aa88161272f565b9050919050565b60006020820190508181036000830152612ac881612752565b9050919050565b60006020820190508181036000830152612ae881612775565b9050919050565b6000602082019050612b046000830184612798565b92915050565b6000612b14612b25565b9050612b208282612d46565b919050565b6000604051905090565b600067ffffffffffffffff821115612b4a57612b49612ead565b5b612b5382612ef0565b9050602081019050919050565b600081519050919050565b600081519050919050565b600082825260208201905092915050565b600082825260208201905092915050565b600081905092915050565b6000612bae82612cc8565b9150612bb983612cc8565b9250827fffffffffffffffffffffffffffffffffffffffffffffffffffffffffffffffff03821115612bee57612bed612df1565b5b828201905092915050565b6000612c0482612cc8565b9150612c0f83612cc8565b925082612c1f57612c1e612e20565b5b828204905092915050565b6000612c3582612cc8565b9150612c4083612cc8565b925082821015612c5357612c52612df1565b5b828203905092915050565b6000612c6982612ca8565b9050919050565b60008115159050919050565b60007fffffffff0000000000000000000000000000000000000000000000000000000082169050919050565b600073ffffffffffffffffffffffffffffffffffffffff82169050919050565b6000819050919050565b82818337600083830152505050565b60005b83811015612cff578082015181840152602081019050612ce4565b83811115612d0e576000848401525b50505050565b60006002820490506001821680612d2c57607f821691505b60208210811415612d4057612d3f612e4f565b5b50919050565b612d4f82612ef0565b810181811067ffffffffffffffff82111715612d6e57612d6d612ead565b5b80604052505050565b6000612d8282612cc8565b91507fffffffffffffffffffffffffffffffffffffffffffffffffffffffffffffffff821415612db557612db4612df1565b5b600182019050919050565b6000612dcb82612cc8565b9150612dd683612cc8565b925082612de657612de5612e20565b5b828206905092915050565b7f4e487b7100000000000000000000000000000000000000000000000000000000600052601160045260246000fd5b7f4e487b7100000000000000000000000000000000000000000000000000000000600052601260045260246000fd5b7f4e487b7100000000000000000000000000000000000000000000000000000000600052602260045260246000fd5b7f4e487b7100000000000000000000000000000000000000000000000000000000600052603260045260246000fd5b7f4e487b7100000000000000000000000000000000000000000000000000000000600052604160045260246000fd5b600080fd5b600080fd5b600080fd5b600080fd5b6000601f19601f8301169050919050565b7f7769746864726177207768656e20686176652070726f66697400000000000000600082015250565b7f4552433732313a207472616e7366657220746f206e6f6e20455243373231526560008201527f63656976657220696d706c656d656e7465720000000000000000000000000000602082015250565b7f4552433732313a207472616e736665722066726f6d20696e636f72726563742060008201527f6f776e6572000000000000000000000000000000000000000000000000000000602082015250565b7f4552433732313a20746f6b656e20616c7265616479206d696e74656400000000600082015250565b7f4552433732313a207472616e7366657220746f20746865207a65726f2061646460008201527f7265737300000000000000000000000000000000000000000000000000000000602082015250565b7f4552433732313a20617070726f766520746f2063616c6c657200000000000000600082015250565b7f4552433732313a2061646472657373207a65726f206973206e6f74206120766160008201527f6c6964206f776e65720000000000000000000000000000000000000000000000602082015250565b7f45524337323155524953746f726167653a2055524920736574206f66206e6f6e60008201527f6578697374656e7420746f6b656e000000000000000000000000000000000000602082015250565b7f4552433732313a20617070726f76652063616c6c6572206973206e6f7420746f60008201527f6b656e206f776e6572206e6f7220617070726f76656420666f7220616c6c0000602082015250565b7f4552433732313a206d696e7420746f20746865207a65726f2061646472657373600082015250565b7f6e6f7420656e6f75677468204c494e4b00000000000000000000000000000000600082015250565b7f6f6e6c79206275726e20746865206261636b6564206974656d00000000000000600082015250565b7f6f6e6c79206f776e657200000000000000000000000000000000000000000000600082015250565b7f4552433732313a20696e76616c696420746f6b656e2049440000000000000000600082015250565b7f4552433732313a20617070726f76616c20746f2063757272656e74206f776e6560008201527f7200000000000000000000000000000000000000000000000000000000000000602082015250565b7f6f6e6c79204e4654206f776e65722063616e206275726e000000000000000000600082015250565b7f4552433732313a2063616c6c6572206973206e6f7420746f6b656e206f776e6560008201527f72206e6f7220617070726f766564000000000000000000000000000000000000602082015250565b6132f381612c5e565b81146132fe57600080fd5b50565b61330a81612c70565b811461331557600080fd5b50565b61332181612c7c565b811461332c57600080fd5b50565b61333881612cc8565b811461334357600080fd5b5056fe697066733a2f2f516d664b535956655478464d5642633831664e34553143656544356f4c654c6e50515244704c534e4334593871413f66696c656e616d653d73776f72643030312e6a736f6ea264697066735822122048efd4a54570030bb21048f6617de5872448e401d83ad52bacc766e6eed76da664736f6c63430008070033",
  "devdoc": {
    "kind": "dev",
    "methods": {
      "approve(address,uint256)": {
        "details": "See {IERC721-approve}."
      },
      "balanceOf(address)": {
        "details": "See {IERC721-balanceOf}."
      },
      "getApproved(uint256)": {
        "details": "See {IERC721-getApproved}."
      },
      "isApprovedForAll(address,address)": {
        "details": "See {IERC721-isApprovedForAll}."
      },
      "name()": {
        "details": "See {IERC721Metadata-name}."
      },
      "ownerOf(uint256)": {
        "details": "See {IERC721-ownerOf}."
      },
      "safeTransferFrom(address,address,uint256)": {
        "details": "See {IERC721-safeTransferFrom}."
      },
      "safeTransferFrom(address,address,uint256,bytes)": {
        "details": "See {IERC721-safeTransferFrom}."
      },
      "setApprovalForAll(address,bool)": {
        "details": "See {IERC721-setApprovalForAll}."
      },
      "supportsInterface(bytes4)": {
        "details": "See {IERC165-supportsInterface}."
      },
      "symbol()": {
        "details": "See {IERC721Metadata-symbol}."
      },
      "tokenURI(uint256)": {
        "details": "See {IERC721Metadata-tokenURI}."
      },
      "transferFrom(address,address,uint256)": {
        "details": "See {IERC721-transferFrom}."
      }
    },
    "version": 1
  },
  "userdoc": {
    "kind": "user",
    "methods": {},
    "version": 1
  },
  "storageLayout": {
    "storage": [
      {
        "astId": 714,
        "contract": "contracts/RicchezzaSword001.sol:RicchezzaSword001",
        "label": "_name",
        "offset": 0,
        "slot": "0",
        "type": "t_string_storage"
      },
      {
        "astId": 716,
        "contract": "contracts/RicchezzaSword001.sol:RicchezzaSword001",
        "label": "_symbol",
        "offset": 0,
        "slot": "1",
        "type": "t_string_storage"
      },
      {
        "astId": 720,
        "contract": "contracts/RicchezzaSword001.sol:RicchezzaSword001",
        "label": "_owners",
        "offset": 0,
        "slot": "2",
        "type": "t_mapping(t_uint256,t_address)"
      },
      {
        "astId": 724,
        "contract": "contracts/RicchezzaSword001.sol:RicchezzaSword001",
        "label": "_balances",
        "offset": 0,
        "slot": "3",
        "type": "t_mapping(t_address,t_uint256)"
      },
      {
        "astId": 728,
        "contract": "contracts/RicchezzaSword001.sol:RicchezzaSword001",
        "label": "_tokenApprovals",
        "offset": 0,
        "slot": "4",
        "type": "t_mapping(t_uint256,t_address)"
      },
      {
        "astId": 734,
        "contract": "contracts/RicchezzaSword001.sol:RicchezzaSword001",
        "label": "_operatorApprovals",
        "offset": 0,
        "slot": "5",
        "type": "t_mapping(t_address,t_mapping(t_address,t_bool))"
      },
      {
        "astId": 1702,
        "contract": "contracts/RicchezzaSword001.sol:RicchezzaSword001",
        "label": "_tokenURIs",
        "offset": 0,
        "slot": "6",
        "type": "t_mapping(t_uint256,t_string_storage)"
      },
      {
        "astId": 2509,
        "contract": "contracts/RicchezzaSword001.sol:RicchezzaSword001",
        "label": "_tokenIds",
        "offset": 0,
        "slot": "7",
        "type": "t_struct(Counter)2164_storage"
      },
      {
        "astId": 2527,
        "contract": "contracts/RicchezzaSword001.sol:RicchezzaSword001",
        "label": "s_edenWithdrawable",
        "offset": 0,
        "slot": "8",
        "type": "t_uint256"
      },
      {
        "astId": 2531,
        "contract": "contracts/RicchezzaSword001.sol:RicchezzaSword001",
        "label": "tokenIsBackedByLINK",
        "offset": 0,
        "slot": "9",
        "type": "t_mapping(t_uint256,t_uint256)"
      }
    ],
    "types": {
      "t_address": {
        "encoding": "inplace",
        "label": "address",
        "numberOfBytes": "20"
      },
      "t_bool": {
        "encoding": "inplace",
        "label": "bool",
        "numberOfBytes": "1"
      },
      "t_mapping(t_address,t_bool)": {
        "encoding": "mapping",
        "key": "t_address",
        "label": "mapping(address => bool)",
        "numberOfBytes": "32",
        "value": "t_bool"
      },
      "t_mapping(t_address,t_mapping(t_address,t_bool))": {
        "encoding": "mapping",
        "key": "t_address",
        "label": "mapping(address => mapping(address => bool))",
        "numberOfBytes": "32",
        "value": "t_mapping(t_address,t_bool)"
      },
      "t_mapping(t_address,t_uint256)": {
        "encoding": "mapping",
        "key": "t_address",
        "label": "mapping(address => uint256)",
        "numberOfBytes": "32",
        "value": "t_uint256"
      },
      "t_mapping(t_uint256,t_address)": {
        "encoding": "mapping",
        "key": "t_uint256",
        "label": "mapping(uint256 => address)",
        "numberOfBytes": "32",
        "value": "t_address"
      },
      "t_mapping(t_uint256,t_string_storage)": {
        "encoding": "mapping",
        "key": "t_uint256",
        "label": "mapping(uint256 => string)",
        "numberOfBytes": "32",
        "value": "t_string_storage"
      },
      "t_mapping(t_uint256,t_uint256)": {
        "encoding": "mapping",
        "key": "t_uint256",
        "label": "mapping(uint256 => uint256)",
        "numberOfBytes": "32",
        "value": "t_uint256"
      },
      "t_string_storage": {
        "encoding": "bytes",
        "label": "string",
        "numberOfBytes": "32"
      },
      "t_struct(Counter)2164_storage": {
        "encoding": "inplace",
        "label": "struct Counters.Counter",
        "members": [
          {
            "astId": 2163,
            "contract": "contracts/RicchezzaSword001.sol:RicchezzaSword001",
            "label": "_value",
            "offset": 0,
            "slot": "0",
            "type": "t_uint256"
          }
        ],
        "numberOfBytes": "32"
      },
      "t_uint256": {
        "encoding": "inplace",
        "label": "uint256",
        "numberOfBytes": "32"
      }
    }
  }
}